:020000040800F2
:10000000A806002089010008B1070008CF060008F3
:10001000AD07000843020008DD16000800000000DC
:10002000000000000000000000000000450F000874
:100030005505000800000000010F00086D120008BF
:10004000A3010008A3010008A3010008A301000800
:10005000A3010008A3010008A3010008A3010008F0
:10006000A3010008A3010008A3010008A3010008E0
:10007000A3010008A3010008A3010008A3010008D0
:10008000A3010008A3010008A3010008A3010008C0
:10009000A3010008A3010008A3010008A3010008B0
:1000A000A3010008A3010008A3010008A3010008A0
:1000B000A3010008D1120008A3010008A301000851
:1000C000A3010008A3010008A3010008A301000880
:1000D000A3010008A3010008A3010008A301000870
:1000E000A3010008A3010008A301000800F002F822
:1000F00000F03AF80AA090E8000C82448344AAF188
:100100000107DA4501D100F02FF8AFF2090EBAE885
:100110000F0013F0010F18BFFB1A43F0010318473B
:10012000702B0000902B0000103A24BF78C878C1D3
:10013000FAD8520724BF30C830C144BF04680C60ED
:10014000704700000023002400250026103A28BF35
:1001500078C1FBD8520728BF30C148BF0B60704739
:100160001FB51FBD10B510BD00F031F81146FFF7E7
:10017000F7FF01F0EDFA00F04FF803B4FFF7F2FFDC
:1001800003BC00F057F800000948804709480047C1
:10019000FEE7FEE7FEE7FEE7FEE7FEE7FEE7FEE737
:1001A000FEE7FEE704480549054A064B7047000094
:1001B00071120008ED000008A8000020A806002029
:1001C000A8020020A80200207047704770477546BB
:1001D00000F02CF8AE4605006946534620F00700B3
:1001E000854618B020B5FFF7DDFFBDE820404FF091
:1001F00000064FF000074FF000084FF0000B21F011
:100200000701AC46ACE8C009ACE8C009ACE8C009DD
:10021000ACE8C0098D46704710B50446AFF30080C6
:100220002046BDE81040FFF7A8BF00000048704717
:100230004400002001491820ABBEFEE72600020062
:10024000704700BFFEE700002DE9F84F00F080FB8B
:1002500000F096FA4FF0000800260027012401253F
:10026000A14663E1204604EBD0714910A4EB4101A3
:10027000012973D1304601F08FFD82460823524692
:100280000121022000F0B5FC00F024FAA949087011
:1002900008460078012807D100F0C4FA4FF07E51DB
:1002A000404601F0F9FB8046A349404601F0A8FD15
:1002B0002CD204220121084600F0BCFB05220221B9
:1002C000012000F0B7FB06220321012000F0B2FB61
:1002D0009AA20921012000F0AEFC404601F05CFD2D
:1002E0008246012352460A21184600F082FC9148BA
:1002F000007802280AD19049304601F0B5FD8246C7
:10030000414601F0C9FB06464FF000088A494046C5
:1003100001F0F2FC52D107220121084600F08AFBCD
:1003200008220221012000F085FB82480078022883
:1003300044D100F077FA601CC4B2012580480078EF
:10034000B8BBB9F1010F0AD0B9F1020F0DD0B9F164
:10035000030F10D0B9F1040F19D112E054E0314667
:10036000384601F099FB074611E03146384601F066
:1003700079FE07460BE03146384601F075FD074629
:1003800005E03146384601F0F5FB074600BF00BFE7
:100390006C4801780078401C6A4A10706A4840F83E
:1003A0002170104600780A2808DB002011460870EA
:1003B00004E0FFE737460020614908706349404682
:1003C00001F09AFC19D11E220121084600F032FBEF
:1003D0001F220221012000F02DFB202203210120F9
:1003E00000F028FB21220421012000F023FB5148CA
:1003F0000078022801D101F073F95549404601F017
:100400007BFC01D14FF00008204604EBD07149106D
:10041000A4EB410100297DD100F05CF94549087049
:1004200008460078012803D100F0FCF9681CC5B229
:10043000012D10D12B220121084600F035FBA946E1
:100440003C480078022806D100F0ECF9601CC4B2E8
:100450004FF07E580026022D10D12D220121084692
:1004600000F022FBA94633480078022806D100F0AC
:10047000D9F9601CC4B24FF07E580026032D10D16C
:100480002A220121084600F00FFBA94629480078DE
:10049000022806D100F0C6F9601CC4B24FF07E58A5
:1004A0000026042D10D12F220121084600F0FCFA6D
:1004B000A94620480078022806D100F0B3F9601C54
:1004C000C4B24FF07E580026072D00D10125062D1D
:1004D00010D118220121084600F0ACFA192202219D
:1004E000012000F0A7FA13480078022802D100F09A
:1004F00099F91CE0052D19D109220121084600F0C7
:1005000099FA0A220221012000F094FA09480078A1
:10051000022800E00AE009D100F084F903200C234E
:100520003A4601210090022000F0F8FA9AE600BF56
:10053000BDE8F88F00000020000020413A000000D4
:1005400002000020010000201C00002000003041BB
:1005500000004041704700B5034603E04FF47A7055
:1005600000F005F8181EA3F10103F7D100BD00EB60
:10057000C001C9004FF0E0225161002191610521C5
:10058000116100BF4FF0E021096901F480310029B9
:10059000F8D004214FF0E022116170472DE9F041BD
:1005A000024600250026002000230024002791F8A1
:1005B00003C00CF00F0591F803C00CF0100CBCF157
:1005C000000F03D091F802C04CEA050591F800C075
:1005D000BCF1000F31D0146800202BE04FF0010C6B
:1005E0000CFA00F3B1F800C00CEA03069E4220D1D9
:1005F00083004FF00F0C0CFA03F7BC4305FA03FC21
:100600004CEA040491F803C0BCF1280F06D14FF066
:10061000010C0CFA00FCC2F814C00AE091F803C007
:10062000BCF1480F05D14FF0010C0CFA00FCC2F8E8
:1006300010C0401C0828D1D31460B1F800C0BCF130
:10064000FF0F34DD546800202EE000F1080C4FF05D
:10065000010808FA0CF3B1F800C00CEA03069E4248
:1006600021D183004FF00F0C0CFA03F7BC4305FABD
:1006700003FC4CEA040491F803C0BCF1280F05D137
:1006800000F1080C08FA0CF8C2F8148091F803C0C5
:10069000BCF1480F07D100F1080C4FF0010808FA2F
:1006A0000CF8C2F81080401C0828CED35460BDE876
:1006B000F0810246002093680B400BB1012000E05E
:1006C000002070470AB1016100E04161704700BF3E
:1006D000FEE7000070B500264FF400612748FFF7E1
:1006E000E8FF044601212548FFF7E3FF05461CBB50
:1006F00015BB1420FFF72FFF4FF400611F48FFF7D1
:10070000D8FF044601211D48FFF7D3FF0546002C02
:1007100032D10DBB00BF4FF400611848FFF7C9FF8D
:1007200028B901211548FFF7C4FF0028F3D0142091
:10073000FFF711FF03261FE07CB91420FFF70BFF22
:1007400000BF4FF400610D48FFF7B3FF0028F8D059
:100750001420FFF700FF01260EE06DB91420FFF70B
:10076000FAFE00BF01210548FFF7A3FF0028F9D0DA
:100770001420FFF7F0FE0226304670BD000C014049
:1007800008B50121082000F0CDFB48208DF80300BA
:1007900040F60100ADF8000003208DF80200694624
:1007A0000148FFF7FBFE08BD000C014000BFFEE75B
:1007B0007047000070B5002100230F22C47804B3F5
:1007C000154C246804F4E064C4F5E064210AC1F126
:1007D0000403CA40447804FA03F1847814402143A6
:1007E00009010E4C0678A155047804F01F05012478
:1007F000AC4005786D11AD0005F1E025C5F800416C
:1008000009E0047804F01F050124AC40044D06788B
:10081000761145F8264070BD0CED00E000E400E0E4
:1008200080E100E070B500240EE00021204600F0D9
:10083000F0F8002504E0002000F021FA681CC5B2A1
:10084000802DF8DB601CC4B2082CEEDB70BD00000C
:1008500008B50121082000F065FB14208DF8030085
:1008600003208DF802004FF40070ADF800006946D7
:100870000A48FFF793FE4FF48070ADF80000694618
:100880000648FFF78BFE012211020448FFF71AFF0A
:10089000012251020148FFF715FF08BD000C01407D
:1008A00070B50546002415E08020204100EA0502CD
:1008B0004FF400710E48FFF705FF012211020C48AA
:1008C000FFF700FF00224FF480710948FFF7FAFE9E
:1008D000601CC4B2082CE7DB012211020448FFF7B8
:1008E000F1FE00224FF480710148FFF7EBFE70BD6E
:1008F000000C014010B5012251020A48FFF7E2FE48
:10090000012211020748FFF7DDFE00224FF40071BB
:100910000448FFF7D7FE00224FF480710148FFF72B
:10092000D1FE10BD000C014010B500224FF4007143
:100930000648FFF7C7FE012211020448FFF7C2FE76
:10094000012251020148FFF7BDFE10BD000C01401D
:1009500070B5002406E0002500E06D1CB5F57A7F37
:10096000FBD3641CB4F57A7FF5D3FFF771FFAE209B
:1009700000F075F9D52000F072F9802000F06FF9D1
:10098000A82000F06CF93F2000F069F9D32000F0B6
:1009900066F9002000F063F9402000F060F9A12022
:1009A00000F05DF9C82000F05AF9DA2000F057F99C
:1009B000122000F054F9812000F051F9CF2000F00E
:1009C0004EF9D92000F04BF9F12000F048F9DB2076
:1009D00000F045F9302000F042F9A42000F03FF982
:1009E000A62000F03CF98D2000F039F9142000F029
:1009F00036F9AF2000F033F9FFF714FF70BD10B5E2
:100A00000246012000E050430B1EA1F10101FAD182
:100A100010BD70B505460C4645F0B00000F01FF95A
:100A2000102141EA141000F01AF904F00F0000F050
:100A300016F970BD2DE9F04106460F469046142583
:100A40007A1E6A43D1B2721E5206100EFFF7E1FF02
:100A5000002409E008EB8801124A02EBC101085D9D
:100A600000F00DF9601CC4B2AC42F3DB7A1E6A439D
:100A7000D1B2721E012303EB4202D0B2FFF7C9FFCD
:100A800000240AE008EB8801064A02EBC101621962
:100A9000885C00F0F4F8601CC4B2AC42F2DBBDE844
:100AA000F08100003E2700082DE9F04105460E4682
:100AB0001746721ED206110E6A1E5206100EFFF75E
:100AC000A8FF002409E0A7F12001134A02EB01115D
:100AD000085D00F0D4F8601CC4B2082CF3DB721E71
:100AE000D206110E6A1E012303EB4202D0B2FFF7B9
:100AF00090FF00240BE0A7F12001074A02EB01124E
:100B000004F10801505C00F0BAF8601CC4B2082C73
:100B1000F1DBBDE8F08100004E2100082DE9FF4F18
:100B200083B00E4617461D46DDF840B04FF0010970
:100B30000021384601F064FA06D82B22314603988A
:100B4000FFF7B2FFBA4606E02D2231460398FFF7C1
:100B5000ABFF87F0004A59460A20FFF750FF00908C
:100B600001F03AF95146019001F07EF9029001F04E
:100B7000F7F880462C4637E0A5EB0B00A0421DD1CC
:100B800030194844C1B22E220398FFF78DFF4FF071
:100B90000009291B0A20FFF732FFB8FBF0F00A21F9
:100BA000B0FBF1F201FB12003030029030194844E2
:100BB000C1B2DDE90220FFF777FF13E0291B0A200D
:100BC000FFF71DFFB8FBF0F00A21B0FBF1F201FBCB
:100BD00012003030029030194844C1B2DDE90220E1
:100BE000FFF762FF601EC4B2002CC5DC07B0BDE891
:100BF000F08F2DE9F04780460E4617461D4600242B
:100C000015E0281B411E0A20FFF7F9FEB7FBF0F0A4
:100C10000A21B0FBF1F201FB120000F1300930199A
:100C2000C1B24A464046FFF73FFF601CC4B2AC4227
:100C3000E7DBBDE8F0872DE9F04107460E46154693
:100C4000002407E02A5D3019C1B23846FFF72CFFB7
:100C5000601CC4B2285D0028F4D1BDE8F08110B555
:100C60000446FFF747FE7820FFF71AFE0020FFF743
:100C700017FE2046FFF714FEFFF756FE10BD10B515
:100C80000446FFF737FE7820FFF70AFE4020FFF703
:100C900007FE2046FFF704FEFFF746FE10BD0000EA
:100CA00010B5044600205749087048E0012C06D0D2
:100CB000022C09D0032C0CD0042C14D10EE0514886
:100CC000007800F0FDF80EE04E48007800F000F9E2
:100CD00009E04C48007800F003F904E04948007846
:100CE00000F006F900BF00BF0A20FFF734FCFFF751
:100CF000F1FC454908700846007801281AD1012CFA
:100D000006D0022C08D0032C0AD0042C10D10BE002
:100D1000002000F0D5F80BE0002000F0D9F807E043
:100D2000002000F0DDF803E0002000F0E1F800BF53
:100D300000BF10BD33480078401C3249087031486C
:100D400000786428B2DD00202E49087054E0012CA0
:100D500006D0022C0CD0032C12D0042C20D117E08A
:100D600028490978C1F1640188B200F0A9F817E0B8
:100D700024490978C1F1640188B200F0A9F80FE0B4
:100D800020490978C1F1640188B200F0A9F807E0B0
:100D90001C490978C1F1640188B200F0A9F800BFCC
:100DA00000BF0A20FFF7D7FBFFF794FC1649087035
:100DB0000846007801281AD1012C06D0022C08D050
:100DC000032C0AD0042C10D10BE0002000F078F89E
:100DD0000BE0002000F07CF807E0002000F080F835
:100DE00003E0002000F084F800BF00BFA1E7054841
:100DF0000078401C03490870024800786428A6DD8A
:100E000000BF96E7040000200300002000B589B071
:100E10000121084600F076F80121042000F082F854
:100E200018208DF823000F20ADF8200003208DF846
:100E3000220008A92148FFF7B1FB4FF0804000F0E5
:100E4000B4FA0020ADF81A00ADF816006320ADF832
:100E5000180040F2CF20ADF8140000208DF81C00DF
:100E600005A94FF0804000F0E7FB01A800F0D0FB9F
:100E70006020ADF804000020ADF80C000120ADF8B2
:100E800006000020ADF80A0001A94FF0804000F0F4
:100E900093FA01A94FF0804000F0DAFA01A94FF06F
:100EA000804000F027FB01A94FF0804000F072FB6A
:100EB0000121880700F053FA09B000BD0008014085
:100EC00010B5044621464FF0804000F0ABFB10BD4A
:100ED00010B5044621464FF0804000F0A5FB10BD40
:100EE00010B5044621464FF0804000F09FFB10BD36
:100EF00010B5044621464FF0804000F099FB10BD2C
:100F00007047000029B1064AD2690243044BDA61F6
:100F100004E0034AD2698243014BDA617047000062
:100F20000010024029B1064A92690243044B9A61BB
:100F300004E0034A92698243014B9A6170470000C2
:100F400000100240704710B500F002F810BD00001C
:100F50000CB50020019000903348006840F48030C8
:100F60003149086000BF3048006800F4003000904C
:100F70000198401C0190009818B90198B0F5A06F35
:100F8000F1D12948006800F4003010B10120009030
:100F900001E0002000900098012843D12348006818
:100FA00040F01000214908600846006820F0030066
:100FB00008600846006840F0020008601A4840686F
:100FC000194948600846406848600846406840F44F
:100FD000806048600846406820F47C1048600846FD
:100FE000406840F4E81048600846006840F08070AF
:100FF000086000BF0C48006800F000700028F9D0BD
:101000000948406820F003000749486008464068E6
:1010100040F00200486000BF0348406800F00C0048
:101020000828F9D10CBD0000001002400020024049
:101030002DE9FC5FFFF78CFCFFF7A2FB00F05CF9E9
:10104000002700240020019000907AA20121084688
:10105000FFF7F1FD0323002201210220FFF7C9FD64
:101060003A2204210220FFF71FFD0223002205215E
:101070001846FFF7BEFDD6E0FFF72CFB8046B8F11F
:10108000010F23D0B8F1020F08D0B8F1030F04D13B
:1010900000206B490870FFF7C5FB90E069480078B5
:1010A00018B168480078022808D101206549087005
:1010B0006548076800206549087006E061480078C7
:1010C000012802D102205F49087078E05D4800786D
:1010D00002282FD15D48007818B1FFF7A3FBBDE8C7
:1010E000FC9F002057490870574908600024019070
:1010F0000090574908700323002201210220FFF7C6
:1011000078FD3A2204210220FFF7CEFC02230022C0
:1011100005211846FFF76DFD01204C4908704DA2CE
:1011200001210320FFF787FD4AA201210420FFF7D8
:1011300082FD43E04348007801283FD14A484449B2
:10114000097840F821404249097850F821004FF4CD
:101150007A71B0FBF1F944483D49097850F8210013
:101160004FF47A71B0FBF1F201FB120A38490978A9
:10117000C91CC8B203234A460121FFF73AFD34498E
:101180000978C91CC8B23A220421FFF78DFC0A2055
:10119000BAFBF0FB2E490978C91CC8B202235A4693
:1011A0000521FFF726FD2A490978481C00EBD0717C
:1011B0004910A0EB4101264A117000BF00BF00BFDB
:1011C00020480078012805D11F480068C01B04444E
:1011D0001D4807684FF47A70B4FBF0F5B4FBF0F1EA
:1011E00000FB11460198854206D003232A460121BF
:1011F0000220FFF7FEFC01950A20B6FBF0F10A225F
:101200000098B0FBF2F0814209D00A20B6FBF0F959
:1012100002234A4605211846FFF7EBFC00960A20F8
:10122000FFF799F900BF0648007800287FF424AF43
:1012300000BF54E753746F7077617463683A0000BD
:10124000190000200C000020080000200D000020E4
:1012500018000020202020202020202020202020D6
:101260002020202000000000100000207047000017
:1012700010B51348006840F00100114908600846A5
:101280004068104908400E494860084600680E4909
:1012900008400B4908600846006820F48020086078
:1012A0000846406820F4FE0048604FF41F00886044
:1012B000FFF749FE4FF000600449086010BD0000D0
:1012C000001002400000FFF8FFFFF6FE08ED00E00E
:1012D00010B50121064800F04EF840B105480068FD
:1012E000401C044908600121014800F035F810BD98
:1012F00000040040080000201FB501210220FFF774
:1013000001FE40F2E730ADF808004720ADF80400D8
:101310000020ADF80A00ADF8060001A90D4800F064
:101320008BF9012211460B4800F036F81D208DF88C
:10133000000000208DF8010001208DF802008DF8DA
:1013400003006846FFF736FA0121024800F007F86B
:101350001FBD000000040040CA430282704721B153
:10136000028842F00102028004E002884FF6FE7318
:101370001A400280704730B5024600200023002446
:10138000158A05EA0103958905EA010413B10CB138
:10139000012000E0002030BD1AB183890B43838116
:1013A00002E083898B438381704701894FF6F8728D
:1013B000114001817047000070B500240022002315
:1013C000058C4FF6FE7635400584028C8388048BAD
:1013D0004FF68F752C40B51E2C400D882C43751E82
:1013E0002A400D892A434D882A43144DA8420BD028
:1013F000134DA84208D0134DA84205D0124DA84263
:1014000002D0124DA84213D14FF6F7752A404D89EC
:101410002A434FF6FB752A408D882A434FF6FF6515
:101420002B404FF6FF552B408D892B43CD892B4305
:1014300083800483CD888586028470BD002C0140A2
:101440000034014000400140004401400048014098
:1014500070B5002400220023058C4FF6EF7635404E
:101460000584028C8388048B48F6FF752C404FF668
:10147000FF452C400D884FF6FF7606EA05252C43E4
:101480004FF6DF752A400D8906EA05152A434D8877
:1014900006EA05152A43154DA84202D0144DA8426C
:1014A0001DD14FF67F752A404D894FF6FF7606EA2B
:1014B00005152A434FF6BF752A408D8806EA0515A3
:1014C0002A434FF6FF352B404FF2FF752B408D8995
:1014D00006EA85052B43CD8906EA85052B438380E3
:1014E0000483CD880587028470BD0000002C014074
:1014F0000034014070B5002400220023058C4FF613
:10150000FF6635400584028C8388848B4FF68F7587
:101510002C404FF6FC752C400D882C434FF6FF55A0
:101520002A400D894FF6FF7606EA05252A434D88A5
:1015300006EA05252A43154DA84202D0144DA842BB
:101540001DD14FF2FF752A404D894FF6FF7606EA0E
:1015500005252A434FF6FF352A408D8806EA0525E2
:101560002A434EF6FF752B404DF6FF752B408D89B3
:1015700006EA05152B43CD8906EA05152B43838022
:101580008483CD888587028470BD0000002C0140D3
:101590000034014070B5002200230024058C4EF673
:1015A000FF7635400584038C8488828B48F6FF756E
:1015B0002A404FF6FF452A400D884FF6FF7606EA8F
:1015C00005252A434DF6FF752B400D8906EA0535A2
:1015D0002B434D8806EA05352B430B4DA84202D01C
:1015E0000A4DA84208D14BF6FF752C408D894FF665
:1015F000FF7606EA85152C4384808283CD88A0F887
:101600004050038470BD0000002C014000340140B4
:101610000021018041808180C180018141818181DF
:10162000C181704781867047018770478187704705
:10163000A0F8401070470000002202881D4B98421D
:101640000ED01D4B98420BD0B0F1804F08D01B4BF1
:10165000984205D01A4B984202D01A4B984204D1B6
:101660004FF68F731A404B881A43174B984207D096
:10167000164B984204D04FF6FF431A40CB881A43CA
:1016800002808B8883850B8803850A4B98420BD098
:10169000094B984208D00E4B984205D00D4B98420A
:1016A00002D00D4B984201D10B7A0386012383822D
:1016B00070470000002C014000340140000400404D
:1016C00000080040000C00400010004000140040E2
:1016D00000400140004401400048014000BFFEE7D7
:1016E00038B5FFF79FF815A201210846FFF7A3FAC6
:1016F000002412E0144951F82400002100F0FCFA03
:101700000AD003201049009051F82420A11CC8B22F
:101710000C230121FFF702FA641C0A2CEADB0AE021
:10172000FEF7D8FF0949087008460078022802D160
:10173000FFF778F800E0F3E700BF38BD486973743D
:101740006F72793A000000001C00002000000020A9
:10175000FFF716F8FFF7FCF8002457E00E220321EC
:101760000120FFF767F90F2204210120FFF762F93A
:10177000FEF7B0FF2649087008460078012803D11B
:10178000FFF750F8601CC4B2032C00D10024A4B9A8
:10179000102203210420FFF74DF9112204210846ED
:1017A000FFF748F9122205210420FFF743F91848F2
:1017B0000078022801D1FEF747FD012C14D1132235
:1017C00003210420FFF736F9142204210846FFF70D
:1017D00031F9152205210420FFF72CF90C48007877
:1017E000022801D100F016F8022C0FD11622032195
:1017F0000420FFF71FF9172204210846FFF71AF902
:1018000003480078022801D1FFF712FCA6E7000088
:101810001A000020F8B501210420FFF783FB1020F7
:101820008DF803004FF6FF70ADF8000003208DF82F
:10183000020069469648FEF7B1FEFEF7A1FFFFF7EA
:1018400087F8FFF7E3FA002400261EE1FEF742FFC7
:10185000904908700846007801280FD1FEF7E2FF92
:10186000601CC4B20020FFF72BFB0020FFF730FB09
:101870000020FFF735FB0020FFF73AFB032C00D1D7
:101880000024022C1CD1182201210846FFF7D2F8AF
:10189000192202210120FFF7CDF87E4800780228A6
:1018A0000ED10020FFF70CFB0020FFF711FB0020FA
:1018B000FFF716FB0020FFF71BFBFEF7B3FFE5E089
:1018C00074B91A2203210420FFF7B4F81B22042163
:1018D0000846FFF7AFF86F480078022800D10126CC
:1018E000012C0ED11C2203210420FFF7A3F81D2296
:1018F00004210846FFF79EF866480078022800D1C8
:1019000002269BE0FEF7E6FE624908706420FFF7BE
:10191000D7FA6420FEF71FFE0020FFF7D1FA6420FB
:10192000FEF719FEFEF7D6FE5A4908700846007801
:10193000012811D10020FFF7C3FA0020FFF7C8FAF1
:101940000020FFF7CDFA0020FFF7D2FAFEF76AFF7A
:10195000601CC4B2002674E06420FFF7B9FA64206A
:10196000FEF7F9FD0020FFF7B3FA6420FEF7F3FD60
:10197000FEF7B0FE4749087008460078012811D1EB
:101980000020FFF79DFA0020FFF7A2FA0020FFF7E2
:10199000A7FA0020FFF7ACFAFEF744FF601CC4B2C0
:1019A00000264EE06420FFF79BFA6420FEF7D3FD8B
:1019B0000020FFF795FA6420FEF7CDFDFEF78AFEC2
:1019C0003449087008460078012811D10020FFF73B
:1019D00077FA0020FFF77CFA0020FFF781FA002059
:1019E000FFF786FAFEF71EFF601CC4B2002628E04F
:1019F0006420FFF77DFA6420FEF7ADFD0020FFF7BD
:101A000077FA6420FEF7A7FDFEF764FE214908700F
:101A100008460078012811D10020FFF751FA002074
:101A2000FFF756FA0020FFF75BFA0020FFF760FA95
:101A3000FEF7F8FE601CC4B2002602E0012E3FF45F
:101A400061AF00BF1FE001251AE02846FFF728F923
:101A500010480078012811D10020FFF731FA00204A
:101A6000FFF736FA0020FFF73BFA0020FFF740FAB5
:101A7000FEF7D8FE601CC4B2002603E0681CC5B2A5
:101A8000042DE2DD00BF022EDDD0DFE600BFF8BD91
:101A9000000801400300002090EA010F48BF81F0D8
:101AA000004100F1E682421A3CBF801A89184FEAD1
:101AB000D0524FF07F4C1CEA410FA2EBD15318BF1C
:101AC0009CEA026F00F03B804FF0004C4CEA002093
:101AD0004CEA012121FA03FC10EB0C0C1ED202F19E
:101AE000FF325FEA1C2040EBC25038BF70471CF049
:101AF0007F0F4FEA400C18BFBCF17F4F38BF7047D3
:101B0000C3F12003994008BF20F00100BCF17F4FD2
:101B100038BF7047A0F1C04000F06DBA4FEA3C00FA
:101B2000000A40EBC25028BF1CF0FF0F4FEA400CE8
:101B3000E6D018BFBCF17F4F38BF7047EAE79CEA98
:101B4000026F05D010EA5C0F08BF00F0004070473C
:101B500010B500F00AFA00BF64FBBE3E401058BF4B
:101B6000C0F14040491058BFC1F140418142EFF3FC
:101B7000008070474FF47F0C1CEAD0121EBF1CEA95
:101B8000D11392EA0C0F93EA0C0F00F0858090EAD3
:101B9000010F48BF42F4807240F4000C41F4000091
:101BA0002CF07F4120F07F4000B58142A2EB030280
:101BB0000FF2081CACEB504EC0F100009EF800E0A4
:101BC0004FEA4E0E00FB0EFC38BF49004FEA2C1CBA
:101BD00002F5FA020CFB0EF34FEACE1E4FEA112C6F
:101BE0004FEAC1210EEB635E42EB22420EFB0CFC7E
:101BF0004FEA1C5300FB03114FEA112C4FEA01314D
:101C00000EFB0CFC4FEADC4C00FB0C11C14228BF60
:101C100009184CEB03335DF804EB10EB410143EB87
:101C2000C250B2F57C0F38BF704729D512F0F00FC3
:101C30001CBF00F1C04000F000407047008182836B
:101C40008485868788898B8C8D8E8F9192939596CB
:101C500097999A9C9D9FA0A2A3A5A7A8AAACAEB055
:101C6000B2B3B5B7B9BCBEC0C2C5C7C9CCCED1D45A
:101C7000D7D9DCDFE2E6E9ECF0F3F7FAFE0000008A
:101C80004FEA400C0CF1807CBCF17E4F28BF7047BE
:101C9000B0F1C04000F0AFB990EA010F0CEAD113E7
:101CA00048BF42F48072624538BF634507D213F4DF
:101CB0007F0F16D080EA010000F00040704710B599
:101CC00000F053F9097EFC3E00F005B880EA0100FF
:101CD00000F00040704780EA010000F0004000F092
:101CE0008AB912F47F0F04BF0248704780EA0100EE
:101CF00000F081B90000C07F50EA010C00F11380B0
:101D00001CF5000F58BFBCF5000F01D48842704786
:101D100007D710F5000F58BF11F5000F15D48842F2
:101D20007047894270471CF5000F04D5BCF5000FC1
:101D3000F7D5814270474FF0807C1CEB400F38BFD5
:101D40001CEB410F01D28142704710B500F00DF934
:101D5000922449004FF000504FF08051FFF7FEBE33
:101D600041000B0ED3F19E0208D950F400034FEA54
:101D7000032323FA02F048BF4042704710B500F039
:101D8000F4F800BF49922480002070476FF00042B1
:101D900082EA200070470000C10DD1F19E0206DBEF
:101DA0004FEA002343F0004323FA02F07047004259
:101DB00007D54FEA4001B1F1FE4F02D24FF00000CB
:101DC000704710B500F0D1F8499224800020704788
:101DD0006FEA200070470000B0FA80F310FA03F2B7
:101DE000C3F19D030AD0D90501EB1220530638BF79
:101DF000704700F1010008BF20F0010070470000AB
:101E000050EA010C00F113801CF5000F58BFBCF51F
:101E1000000F01D48842704707D710F5000F58BF54
:101E200011F5000F15D488427047894270471CF5A0
:101E3000000F04D5BCF5000FF7D5814270474FF075
:101E4000807C1CEB400F38BF1CEB410F01D281425C
:101E5000704710B500F089F8922449004FF0005007
:101E60004FF08051FFF77ABE4FF47F0C1CEAD0127E
:101E70001EBF1CEAD11392EA0C0F93EA0C0F00F07C
:101E8000478090EA010F48BF42F480724FF0004C47
:101E90004CEA00204CEA012102EB0302A0FB0113F3
:101EA000A2F50002002918BF43F001035B0028BF20
:101EB0004FEA330342EB22425FEA132C4CEBC25051
:101EC0002EBFBCEB436FB2F57C0F70474FEA036C3B
:101ED000BCF1004F08BF20F00100B2F57C0F38BF05
:101EE00070470BD582F0FF0212F5803FC8BF7047E4
:101EF00000F1C040D8BF00F00040704700F5000C72
:101F00005FEA4C0C48BF7047B0F1C04000F073B8B6
:101F100090EA010F0CEAD11348BF42F48072624587
:101F200038BF634504D280EA010000F000407047EA
:101F300010B500F01AF800BF8900013E00F007B8A4
:101F400000F009B85FEA410C5FEA1C6C08D080EA37
:101F5000010000F050B85FEA400C5FEA1C6CF6D15B
:101F60004FF00040A0F5800070470EF1020E2EF0F9
:101F7000030E5EF8044B244204D44FEA4102B2F14E
:101F80007F4F11D84FEA4003B3F17F4F0CD80ED1E9
:101F90004FEAD07CB2F17F4F0CEB4C0C0CF1020CF1
:101FA00008BF4CEBD17C04E04FF0080C01E04FEA95
:101FB000D17C0CEB4C0324FA03F404F00704B4F1D5
:101FC000040C06D20EEB840CBDE810404CF0010C62
:101FD0006047DFE80CF0070802024FF00040A0F570
:101FE000800010BD0846420018BFD2F1807288BF41
:101FF00000F0004010BDFF2141EAD050C0057047FD
:1020000051EA000C00F113801CF5000F58BFBCF51D
:10201000000F01D48142704707D711F5000F58BF58
:1020200010F5000F15D481427047894270471CF5A6
:10203000000F04D5BCF5000FF7D5884270474FF06C
:10204000807C1CEB410F38BF1CEB400F01D2884253
:10205000704780EA010081EA000180EA0100FFF791
:10206000F8BE000090EA010F48BF81F000413FF543
:102070001AAD421A04D882F00042A0EB02001144CB
:102080004FEAD0524FF07F4C1CEA410FA2EBD153E4
:1020900018BF9CEA026F4AD04FF0004C4CEA002077
:1020A0004CEA012121FA03FCB0EB0C0C0FD412F026
:1020B000FE0F36D05FEA4C001DD5001240EBC25037
:1020C00038BF70471CF03F0F18BF70470BE0A2F1FC
:1020D00001025FEA1C2040EBC25038BF70471CF081
:1020E0007F0F18BF7047C3F12003994014BF401EF3
:1020F00020F00100704780084FEA122308BF7047A4
:10210000B0FA80FCA2EB0C02CCF1280C60FA0CF0C7
:1021100093EA122F04BF00EBC25070474FEAC3701E
:102120007047130A5FEADC1008BF7047F6E79CEAC5
:10213000026F04D010EA5C0F08BF0020704710B592
:10214000FFF713FF40DFF63E81F0004070470000CC
:10215000000000000000000000000000000000007F
:1021600000F8000000000000003330000000001004
:102170000C06100C0600000000000000000040C02B
:102180007840C0784000043F04043F04040000701D
:1021900088FC08300000001820FF211E0000F00815
:1021A000F000E018000000211C031E211E0000F0BA
:1021B0000888700000001E21232419272110101602
:1021C0000E00000000000000000000000000000001
:1021D00000E0180402000000000718204000000280
:1021E0000418E000000000402018070000004040F4
:1021F00080F0804040000202010F01020200000056
:1022000000F0000000000101011F010101000000B9
:1022100000000000000080B070000000000000001E
:1022200000000000000000010101010101010000A7
:10223000000000000000003030000000000000003E
:10224000000080601804006018060100000000E033
:1022500010080810E000000F102020100F000010E0
:1022600010F8000000000020203F20200000007037
:10227000080808887000003028242221300000302F
:102280000888884830000018202020110E00000027
:10229000C02010F8000000070424243F240000F8A8
:1022A0000888880808000019212020110E0000E08D
:1022B000108888180000000F112020110E0000382F
:1022C0000808C83808000000003F00000000007047
:1022D000880808887000001C222121221C0000E0D0
:1022E00010080810E0000000312222110F00000049
:1022F00000C0C000000000000030300000000000FE
:10230000008000000000000080600000000000006D
:102310008040201008000001020408102000404006
:102320004040404040000404040404040400000849
:1023300010204080000000201008040201000070FE
:1023400048080808F0000000003036010000C030E6
:10235000C828E810E0000718272423140B00000009
:10236000C038E0000000203C23020227382008F893
:10237000888888700000203F202020110E00C03087
:10238000080808083800071820202010080008F85E
:1023900008080810E000203F202020100F0008F857
:1023A0008888E8081000203F20202320180008F823
:1023B0008888E8081000203F200003000000C0309B
:1023C00008080838000007182020221E020008F81C
:1023D00008000008F808203F210101213F200008E3
:1023E00008F8080800000020203F2020000000001E
:1023F0000808F8080800C08080807F00000008F806
:1024000088C028180800203F20012638200008F83E
:10241000080000000000203F20202020300008F8A5
:10242000F800F8F80800203F003F003F200008F8BF
:1024300030C00008F808203F200007183F00E010D7
:1024400008080810E0000F10202020100F0008F8E6
:1024500008080808F000203F210101010000E010F9
:1024600008080810E0000F18242438504F0008F81E
:10247000888888887000203F2000030C302000707E
:102480008808080838000038202121221C0018087C
:1024900008F8080818000000203F2000000008F895
:1024A00008000008F808001F202020201F000878DE
:1024B000880000C83808000007380E010000F8083E
:1024C00000F80008F800033C0700073C0300081868
:1024D00068808068180820302C03032C30200838CE
:1024E000C800C83808000000203F20000000100885
:1024F0000808C838080020382621202018000000CD
:1025000000FE020202000000007F40404000000C7C
:1025100030C000000000000000010638C0000002CA
:102520000202FE000000004040407F00000000006A
:10253000040202020400000000000000000000008D
:102540000000000000008080808080808080000289
:102550000204000000000000000000000000000075
:102560008080808000000019242222223F2008F869
:10257000008080000000003F112020110E000000AC
:10258000008080800000000E11202020110000003B
:1025900000808088F800000E112020103F200000ED
:1025A000808080800000001F2222222213000080F1
:1025B00080F0888888180020203F2020000000003C
:1025C000808080808000006B94949493600008F871
:1025D000008080800000203F210000203F200080FC
:1025E0009898000000000020203F202000000000FC
:1025F00000809898000000C08080807F000008F86C
:10260000000080808000203F24022D302000000840
:1026100008F8000000000020203F202000008080FB
:10262000808080808000203F20003F20003F80800D
:10263000008080800000203F210000203F2000001B
:10264000808080800000001F202020201F008080CC
:1026500000808000000080FFA12020110E000000FB
:10266000008080808000000E112020A0FF808080EC
:1026700080008080800020203F2120000100000099
:10268000808080808000003324242424190000806E
:1026900080E0808000000000001F2020000080807B
:1026A000000000808000001F202020103F2080803C
:1026B00080000080808000010E30080601008080CC
:1026C0000080008080800F300C030C300F000080F1
:1026D0008000808080000020312E0E31200080801C
:1026E00080000080808080818E701806010000804C
:1026F0008080808080000021302C2221300000006A
:102700000000807C020200000000003F404000000A
:102710000000FF00000000000000FF0000000002B9
:10272000027C800000000040403F000000000006E6
:10273000010102020404000000000000000000008B
:1027400000F09090909090FE9090909090F01000FB
:1027500000000000000F04040404047F44444444C7
:1027600044474078400000002020FE202020101028
:1027700010FE101010F080000000000000007F80AC
:102780004443201807214040701F0003060000004A
:1027900000C0301C10101010FE101010101010008F
:1027A0000000000003020202020202027F02020293
:1027B00002020203020000004044C8000004C4BC3E
:1027C000ACACACACCCBC82000000002020100F10E0
:1027D00020205F5252524F5252525F400000004040
:1027E0004044CC000048485858587E5A58585844DD
:1027F0004000000000203F100804007F0D0D0D0D6B
:102800004D4D3F0000000080E8988EC888C8A0A009
:10281000B8ACA626283020A0200000080808087FB1
:1028200004047F0A4ACA3F005F40407F0000000066
:10283000000000000204C478708000000000000066
:102840000000004020201008040301000001030CD8
:10285000181030202000000008E8988888C4201054
:10286000E8262AE8382C20E000000002013F101082
:102870001F40201E0705057F0545457F000000001D
:102880008080C4180000000000E07C800000000090
:102890000000000000003F90482824100C030003B3
:1028A0000C1060400000002010184C4A5878484432
:1028B000F848464A5878480400000001010505051B
:1028C000091525050545457F05050505010000009D
:1028D00080808484848484FCFC8484848484404058
:1028E00000000000000000002020407F3F000000AA
:1028F0000000000000000040444454F44CC6C444AE
:10290000F41414DC141414F2000000000040407FA2
:10291000000080404F20301F0810306F4000000042
:10292000004020100C1EA4C444A4140C0400000099
:10293000000000040402027E4B4B4A4A3E4A4B4BC5
:102940007F0202020000000020AC6820FE22689492
:102950009070AE2220A0E0100000000145444C37EA
:1029600034149C634020231C182760404000000062
:102970000808A8A8283E2868A8382E28D858040493
:102980000000000444442425140C04FF7E040A15AE
:1029900024246242000000000000F050525C50F01D
:1029A0005058545250F0000000000008080C0B0A68
:1029B0000A0A0A7F0A0A0A0A0A0B080C0800000021
:1029C0004042C44C000080404040FE4040404040F7
:1029D0000000000000003F201008000000007F0001
:1029E0000000000000000020101804E66854646431
:1029F0005868666AE8181804000000109090505754
:102A0000351D151515157D1517101008000000004F
:102A10008080BCA4A4A4BCC0C0BCA4E4E4BC8480EA
:102A20008000000804047C2626257C00007C2526E6
:102A3000267C04040400002040840CC83048C86888
:102A4000584E44484868C80000000000087C4740D1
:102A500020300F00007F01003F4140407000000027
:102A600040404040C06000FE3AC04040203010006E
:102A70000000000020100C060140407F000001060D
:102A80000C183030000000806000FEFE2010180896
:102A9000080808F8080808040000000040300F0487
:102AA000081800004040407F0000000000000000C7
:102AB0002424C4FCA4220080700000FE02101060D8
:102AC000400000080403007F80434241402010176B
:102AD00008040202000000808088A8A8A8A8A8FE18
:102AE000AAA8A8A8A8B8ACC88000000010080804CC
:102AF0007C42412003040C1422216060000000008D
:102B00004044C8000000FC949494949494FC040005
:102B10000000002020100F1020205F504848424243
:102B2000464D4941000000000080F880808080FE12
:102B30008080808080F8000000000000007E40401F
:102B40004040403F4040404040407C00000000008A
:102B500008080808FE686868686868FE08080400D5
:102B600000000011514949455351517F51514B4D7E
:102B7000554949090900000000101010109060FE2E
:102B8000FE60901010101010000000001008040EDD
:102B90000B0908FF7F0808090A040C080800000058
:102BA000F8080808F8001068C804FCFC84442614DF
:102BB000000000000F0404040F01010141417F3FA8
:102BC0000101010101000000F80808F8040404FCF8
:102BD000C40404645CC0C000000000000702024797
:102BE000229846412023140814236040000000006E
:102BF0000000FC0444444444FC5C44444444C44455
:102C000004000040201C03404020100C0300204022
:102C100040603F00000000000000F0101010101095
:102C2000FE1210101010F000000000808080414162
:102C3000432539191721212141414140000000401D
:102C40004042C44C00000084848484848484FC005A
:102C50000000000000003F201008003F40404040BE
:102C6000404040780000004040404454545454D404
:102C7000D45454547CC04040400000202010101315
:102C80000E48447F3F02040A123121202000000038
:102C9000B02C0008000000201C00000028010008E3
:102CA000CC2C00081C0000208C0600004401000809
:102CB0000000010000000000000000000000000013
:0C2CC00000000000000000000001000007
:040000050800018965
:00000001FF
